{
    "contractName": "Tpcalculator",
    "abi": [
        {
            "inputs": [
                {
                    "internalType": "address",
                    "name": "tptokenAdress_",
                    "type": "address"
                }
            ],
            "stateMutability": "nonpayable",
            "type": "constructor"
        },
        {
            "anonymous": false,
            "inputs": [
                {
                    "indexed": false,
                    "internalType": "string",
                    "name": "operator",
                    "type": "string"
                },
                {
                    "indexed": false,
                    "internalType": "int256",
                    "name": "nb1",
                    "type": "int256"
                },
                {
                    "indexed": false,
                    "internalType": "int256",
                    "name": "nb2",
                    "type": "int256"
                },
                {
                    "indexed": false,
                    "internalType": "int256",
                    "name": "result",
                    "type": "int256"
                }
            ],
            "name": "Calculated",
            "type": "event"
        },
        {
            "anonymous": false,
            "inputs": [
                {
                    "indexed": false,
                    "internalType": "address",
                    "name": "sender",
                    "type": "address"
                },
                {
                    "indexed": false,
                    "internalType": "address",
                    "name": "recipient",
                    "type": "address"
                },
                {
                    "indexed": false,
                    "internalType": "int256",
                    "name": "amount",
                    "type": "int256"
                }
            ],
            "name": "Transfered",
            "type": "event"
        },
        {
            "inputs": [
                {
                    "internalType": "int256",
                    "name": "a",
                    "type": "int256"
                },
                {
                    "internalType": "int256",
                    "name": "b",
                    "type": "int256"
                }
            ],
            "name": "add",
            "outputs": [],
            "stateMutability": "nonpayable",
            "type": "function"
        },
        {
            "inputs": [
                {
                    "internalType": "int256",
                    "name": "a",
                    "type": "int256"
                },
                {
                    "internalType": "int256",
                    "name": "b",
                    "type": "int256"
                }
            ],
            "name": "div",
            "outputs": [],
            "stateMutability": "nonpayable",
            "type": "function"
        },
        {
            "inputs": [
                {
                    "internalType": "int256",
                    "name": "a",
                    "type": "int256"
                },
                {
                    "internalType": "int256",
                    "name": "b",
                    "type": "int256"
                }
            ],
            "name": "mod",
            "outputs": [],
            "stateMutability": "nonpayable",
            "type": "function"
        },
        {
            "inputs": [
                {
                    "internalType": "int256",
                    "name": "a",
                    "type": "int256"
                },
                {
                    "internalType": "int256",
                    "name": "b",
                    "type": "int256"
                }
            ],
            "name": "mul",
            "outputs": [],
            "stateMutability": "nonpayable",
            "type": "function"
        },
        {
            "inputs": [
                {
                    "internalType": "int256",
                    "name": "a",
                    "type": "int256"
                },
                {
                    "internalType": "int256",
                    "name": "b",
                    "type": "int256"
                }
            ],
            "name": "sub",
            "outputs": [],
            "stateMutability": "nonpayable",
            "type": "function"
        }
    ],
    "bytecode": "608060405234801561001057600080fd5b50604051610aa6380380610aa683398101604081905261002f91610054565b600080546001600160a01b0319166001600160a01b0392909216919091179055610082565b600060208284031215610065578081fd5b81516001600160a01b038116811461007b578182fd5b9392505050565b610a15806100916000396000f3fe608060405234801561001057600080fd5b50600436106100575760003560e01c806324e289281461005c5780634350913814610071578063a5f3c23b14610084578063adefc37b14610097578063bbe93d91146100aa575b600080fd5b61006f61006a3660046107c8565b6100bd565b005b61006f61007f3660046107c8565b610235565b61006f6100923660046107c8565b61039c565b61006f6100a53660046107c8565b6104e6565b61006f6100b83660046107c8565b610630565b806100e35760405162461bcd60e51b81526004016100da9061080d565b60405180910390fd5b60005460408051638da5cb5b60e01b815290516001600160a01b03909216916323b872dd9133918491638da5cb5b916004808301926020929190829003018186803b15801561013157600080fd5b505afa158015610145573d6000803e3d6000fd5b505050506040513d601f19601f82011682018060405250810190610169919061077a565b60016040518463ffffffff1660e01b8152600401610189939291906107e9565b602060405180830381600087803b1580156101a357600080fd5b505af11580156101b7573d6000803e3d6000fd5b505050506040513d601f19601f820116820180604052508101906101db91906107a8565b506000805160206109c083398151915282826101f7818361097f565b604080516080808252600390820152621b5bd960ea1b60a08201526020810194909452830191909152606082015260c0015b60405180910390a15050565b806102525760405162461bcd60e51b81526004016100da9061080d565b60005460408051638da5cb5b60e01b815290516001600160a01b03909216916323b872dd9133918491638da5cb5b916004808301926020929190829003018186803b1580156102a057600080fd5b505afa1580156102b4573d6000803e3d6000fd5b505050506040513d601f19601f820116820180604052508101906102d8919061077a565b60016040518463ffffffff1660e01b81526004016102f8939291906107e9565b602060405180830381600087803b15801561031257600080fd5b505af1158015610326573d6000803e3d6000fd5b505050506040513d601f19601f8201168201806040525081019061034a91906107a8565b506000805160206109c08339815191528282610366818361088f565b604080516080808252600390820152623234bb60e91b60a08201526020810194909452830191909152606082015260c001610229565b60005460408051638da5cb5b60e01b815290516001600160a01b03909216916323b872dd9133918491638da5cb5b916004808301926020929190829003018186803b1580156103ea57600080fd5b505afa1580156103fe573d6000803e3d6000fd5b505050506040513d601f19601f82011682018060405250810190610422919061077a565b60016040518463ffffffff1660e01b8152600401610442939291906107e9565b602060405180830381600087803b15801561045c57600080fd5b505af1158015610470573d6000803e3d6000fd5b505050506040513d601f19601f8201168201806040525081019061049491906107a8565b506000805160206109c083398151915282826104b0818361084e565b6040805160808082526003908201526218591960ea1b60a08201526020810194909452830191909152606082015260c001610229565b60005460408051638da5cb5b60e01b815290516001600160a01b03909216916323b872dd9133918491638da5cb5b916004808301926020929190829003018186803b15801561053457600080fd5b505afa158015610548573d6000803e3d6000fd5b505050506040513d601f19601f8201168201806040525081019061056c919061077a565b60016040518463ffffffff1660e01b815260040161058c939291906107e9565b602060405180830381600087803b1580156105a657600080fd5b505af11580156105ba573d6000803e3d6000fd5b505050506040513d601f19601f820116820180604052508101906105de91906107a8565b506000805160206109c083398151915282826105fa8183610940565b6040805160808082526003908201526239bab160e91b60a08201526020810194909452830191909152606082015260c001610229565b60005460408051638da5cb5b60e01b815290516001600160a01b03909216916323b872dd9133918491638da5cb5b916004808301926020929190829003018186803b15801561067e57600080fd5b505afa158015610692573d6000803e3d6000fd5b505050506040513d601f19601f820116820180604052508101906106b6919061077a565b60016040518463ffffffff1660e01b81526004016106d6939291906107e9565b602060405180830381600087803b1580156106f057600080fd5b505af1158015610704573d6000803e3d6000fd5b505050506040513d601f19601f8201168201806040525081019061072891906107a8565b506000805160206109c0833981519152828261074481836108bd565b604080516080808252600390820152621b5d5b60ea1b60a08201526020810194909452830191909152606082015260c001610229565b60006020828403121561078b578081fd5b81516001600160a01b03811681146107a1578182fd5b9392505050565b6000602082840312156107b9578081fd5b815180151581146107a1578182fd5b600080604083850312156107da578081fd5b50508035926020909101359150565b6001600160a01b039384168152919092166020820152604081019190915260600190565b60208082526021908201527f547063616c63756c61746f723a2063616e206e6f7420646976696465206279206040820152600360fc1b606082015260800190565b600080821280156001600160ff1b038490038513161561087057610870610993565b600160ff1b839003841281161561088957610889610993565b50500190565b60008261089e5761089e6109a9565b600160ff1b8214600019841416156108b8576108b8610993565b500590565b60006001600160ff1b03818413828413808216868404861116156108e3576108e3610993565b600160ff1b8487128281168783058912161561090157610901610993565b85871292508782058712848416161561091c5761091c610993565b8785058712818416161561093257610932610993565b505050929093029392505050565b60008083128015600160ff1b85018412161561095e5761095e610993565b6001600160ff1b038401831381161561097957610979610993565b50500390565b60008261098e5761098e6109a9565b500790565b634e487b7160e01b600052601160045260246000fd5b634e487b7160e01b600052601260045260246000fdfe4ac5ef9858742e1bb8114f1bc0e845f176d11377b95cf669d47bb7fd0e15ca23a26469706673582212202da39055eb0e851ab141353cd3ca3c7278fbed7dd5f613d41069e97e43d63f1464736f6c63430008040033",
    "sourcePath": "/home/enima/dev/ico-tp/contracts/Tp-calculator.sol",
    "compiler": {
        "name": "solc",
        "version": "0.8.4+commit.c7e474f2"
    },
    "functionHashes": {
        "add(int256,int256)": "a5f3c23b",
        "div(int256,int256)": "43509138",
        "mod(int256,int256)": "24e28928",
        "mul(int256,int256)": "bbe93d91",
        "sub(int256,int256)": "adefc37b"
    },
    "gasEstimates": {
        "creation": {
            "codeDepositCost": "516200",
            "executionCost": "infinite",
            "totalCost": "infinite"
        },
        "external": {
            "add(int256,int256)": "infinite",
            "div(int256,int256)": "infinite",
            "mod(int256,int256)": "infinite",
            "mul(int256,int256)": "infinite",
            "sub(int256,int256)": "infinite"
        }
    }
}